{
  "_format": "hh-sol-artifact-1",
  "contractName": "DAOfiV1Pair",
  "sourceName": "contracts/DAOfiV1Pair.sol",
  "abi": [
    {
      "inputs": [],
      "stateMutability": "nonpayable",
      "type": "constructor"
    },
    {
      "anonymous": false,
      "inputs": [
        {
          "indexed": true,
          "internalType": "address",
          "name": "sender",
          "type": "address"
        },
        {
          "indexed": false,
          "internalType": "uint256",
          "name": "amountBase",
          "type": "uint256"
        },
        {
          "indexed": false,
          "internalType": "uint256",
          "name": "amountQuote",
          "type": "uint256"
        },
        {
          "indexed": false,
          "internalType": "uint256",
          "name": "output",
          "type": "uint256"
        },
        {
          "indexed": true,
          "internalType": "address",
          "name": "to",
          "type": "address"
        }
      ],
      "name": "Deposit",
      "type": "event"
    },
    {
      "anonymous": false,
      "inputs": [
        {
          "indexed": true,
          "internalType": "address",
          "name": "sender",
          "type": "address"
        },
        {
          "indexed": false,
          "internalType": "address",
          "name": "tokenIn",
          "type": "address"
        },
        {
          "indexed": false,
          "internalType": "address",
          "name": "tokenOut",
          "type": "address"
        },
        {
          "indexed": false,
          "internalType": "uint256",
          "name": "amountIn",
          "type": "uint256"
        },
        {
          "indexed": false,
          "internalType": "uint256",
          "name": "amountOut",
          "type": "uint256"
        },
        {
          "indexed": true,
          "internalType": "address",
          "name": "to",
          "type": "address"
        }
      ],
      "name": "Swap",
      "type": "event"
    },
    {
      "anonymous": false,
      "inputs": [
        {
          "indexed": true,
          "internalType": "address",
          "name": "sender",
          "type": "address"
        },
        {
          "indexed": false,
          "internalType": "uint256",
          "name": "amountBase",
          "type": "uint256"
        },
        {
          "indexed": false,
          "internalType": "uint256",
          "name": "amountQuote",
          "type": "uint256"
        },
        {
          "indexed": true,
          "internalType": "address",
          "name": "to",
          "type": "address"
        }
      ],
      "name": "Withdraw",
      "type": "event"
    },
    {
      "anonymous": false,
      "inputs": [
        {
          "indexed": true,
          "internalType": "address",
          "name": "sender",
          "type": "address"
        },
        {
          "indexed": false,
          "internalType": "uint256",
          "name": "amountBase",
          "type": "uint256"
        },
        {
          "indexed": false,
          "internalType": "uint256",
          "name": "amountQuote",
          "type": "uint256"
        },
        {
          "indexed": true,
          "internalType": "address",
          "name": "to",
          "type": "address"
        }
      ],
      "name": "WithdrawFees",
      "type": "event"
    },
    {
      "inputs": [],
      "name": "MAX_FEE",
      "outputs": [
        {
          "internalType": "uint8",
          "name": "",
          "type": "uint8"
        }
      ],
      "stateMutability": "view",
      "type": "function"
    },
    {
      "inputs": [],
      "name": "PLATFORM",
      "outputs": [
        {
          "internalType": "address",
          "name": "",
          "type": "address"
        }
      ],
      "stateMutability": "view",
      "type": "function"
    },
    {
      "inputs": [],
      "name": "PLATFORM_FEE",
      "outputs": [
        {
          "internalType": "uint8",
          "name": "",
          "type": "uint8"
        }
      ],
      "stateMutability": "view",
      "type": "function"
    },
    {
      "inputs": [],
      "name": "basePrice",
      "outputs": [
        {
          "internalType": "uint256",
          "name": "price",
          "type": "uint256"
        }
      ],
      "stateMutability": "view",
      "type": "function"
    },
    {
      "inputs": [],
      "name": "baseToken",
      "outputs": [
        {
          "internalType": "address",
          "name": "",
          "type": "address"
        }
      ],
      "stateMutability": "view",
      "type": "function"
    },
    {
      "inputs": [
        {
          "internalType": "address",
          "name": "to",
          "type": "address"
        }
      ],
      "name": "deposit",
      "outputs": [
        {
          "internalType": "uint256",
          "name": "amountBaseOut",
          "type": "uint256"
        }
      ],
      "stateMutability": "nonpayable",
      "type": "function"
    },
    {
      "inputs": [],
      "name": "factory",
      "outputs": [
        {
          "internalType": "address",
          "name": "",
          "type": "address"
        }
      ],
      "stateMutability": "view",
      "type": "function"
    },
    {
      "inputs": [],
      "name": "fee",
      "outputs": [
        {
          "internalType": "uint32",
          "name": "",
          "type": "uint32"
        }
      ],
      "stateMutability": "view",
      "type": "function"
    },
    {
      "inputs": [
        {
          "internalType": "uint256",
          "name": "amountQuoteIn",
          "type": "uint256"
        }
      ],
      "name": "getBaseOut",
      "outputs": [
        {
          "internalType": "uint256",
          "name": "amountBaseOut",
          "type": "uint256"
        }
      ],
      "stateMutability": "view",
      "type": "function"
    },
    {
      "inputs": [],
      "name": "getOwnerFees",
      "outputs": [
        {
          "internalType": "uint256",
          "name": "feesBase",
          "type": "uint256"
        },
        {
          "internalType": "uint256",
          "name": "feesQuote",
          "type": "uint256"
        }
      ],
      "stateMutability": "view",
      "type": "function"
    },
    {
      "inputs": [],
      "name": "getPlatformFees",
      "outputs": [
        {
          "internalType": "uint256",
          "name": "feesBase",
          "type": "uint256"
        },
        {
          "internalType": "uint256",
          "name": "feesQuote",
          "type": "uint256"
        }
      ],
      "stateMutability": "view",
      "type": "function"
    },
    {
      "inputs": [
        {
          "internalType": "uint256",
          "name": "amountBaseIn",
          "type": "uint256"
        }
      ],
      "name": "getQuoteOut",
      "outputs": [
        {
          "internalType": "uint256",
          "name": "amountQuoteOut",
          "type": "uint256"
        }
      ],
      "stateMutability": "view",
      "type": "function"
    },
    {
      "inputs": [],
      "name": "getReserves",
      "outputs": [
        {
          "internalType": "uint256",
          "name": "_reserveBase",
          "type": "uint256"
        },
        {
          "internalType": "uint256",
          "name": "_reserveQuote",
          "type": "uint256"
        }
      ],
      "stateMutability": "view",
      "type": "function"
    },
    {
      "inputs": [
        {
          "internalType": "address",
          "name": "_router",
          "type": "address"
        },
        {
          "internalType": "address",
          "name": "_baseToken",
          "type": "address"
        },
        {
          "internalType": "address",
          "name": "_quoteToken",
          "type": "address"
        },
        {
          "internalType": "address",
          "name": "_pairOwner",
          "type": "address"
        },
        {
          "internalType": "uint32",
          "name": "_slopeNumerator",
          "type": "uint32"
        },
        {
          "internalType": "uint32",
          "name": "_n",
          "type": "uint32"
        },
        {
          "internalType": "uint32",
          "name": "_fee",
          "type": "uint32"
        }
      ],
      "name": "initialize",
      "outputs": [],
      "stateMutability": "nonpayable",
      "type": "function"
    },
    {
      "inputs": [],
      "name": "n",
      "outputs": [
        {
          "internalType": "uint32",
          "name": "",
          "type": "uint32"
        }
      ],
      "stateMutability": "view",
      "type": "function"
    },
    {
      "inputs": [],
      "name": "pairOwner",
      "outputs": [
        {
          "internalType": "address",
          "name": "",
          "type": "address"
        }
      ],
      "stateMutability": "view",
      "type": "function"
    },
    {
      "inputs": [],
      "name": "quotePrice",
      "outputs": [
        {
          "internalType": "uint256",
          "name": "price",
          "type": "uint256"
        }
      ],
      "stateMutability": "view",
      "type": "function"
    },
    {
      "inputs": [],
      "name": "quoteToken",
      "outputs": [
        {
          "internalType": "address",
          "name": "",
          "type": "address"
        }
      ],
      "stateMutability": "view",
      "type": "function"
    },
    {
      "inputs": [],
      "name": "reserveRatio",
      "outputs": [
        {
          "internalType": "uint32",
          "name": "",
          "type": "uint32"
        }
      ],
      "stateMutability": "view",
      "type": "function"
    },
    {
      "inputs": [
        {
          "internalType": "address",
          "name": "_nextOwner",
          "type": "address"
        }
      ],
      "name": "setPairOwner",
      "outputs": [],
      "stateMutability": "nonpayable",
      "type": "function"
    },
    {
      "inputs": [],
      "name": "slopeNumerator",
      "outputs": [
        {
          "internalType": "uint32",
          "name": "",
          "type": "uint32"
        }
      ],
      "stateMutability": "view",
      "type": "function"
    },
    {
      "inputs": [],
      "name": "supply",
      "outputs": [
        {
          "internalType": "uint256",
          "name": "",
          "type": "uint256"
        }
      ],
      "stateMutability": "view",
      "type": "function"
    },
    {
      "inputs": [
        {
          "internalType": "address",
          "name": "tokenIn",
          "type": "address"
        },
        {
          "internalType": "address",
          "name": "tokenOut",
          "type": "address"
        },
        {
          "internalType": "uint256",
          "name": "amountIn",
          "type": "uint256"
        },
        {
          "internalType": "uint256",
          "name": "amountOut",
          "type": "uint256"
        },
        {
          "internalType": "address",
          "name": "to",
          "type": "address"
        }
      ],
      "name": "swap",
      "outputs": [],
      "stateMutability": "nonpayable",
      "type": "function"
    },
    {
      "inputs": [
        {
          "internalType": "address",
          "name": "to",
          "type": "address"
        }
      ],
      "name": "withdraw",
      "outputs": [
        {
          "internalType": "uint256",
          "name": "amountBase",
          "type": "uint256"
        },
        {
          "internalType": "uint256",
          "name": "amountQuote",
          "type": "uint256"
        }
      ],
      "stateMutability": "nonpayable",
      "type": "function"
    },
    {
      "inputs": [
        {
          "internalType": "address",
          "name": "to",
          "type": "address"
        }
      ],
      "name": "withdrawPlatformFees",
      "outputs": [
        {
          "internalType": "uint256",
          "name": "amountBase",
          "type": "uint256"
        },
        {
          "internalType": "uint256",
          "name": "amountQuote",
          "type": "uint256"
        }
      ],
      "stateMutability": "nonpayable",
      "type": "function"
    }
  ],
  "bytecode": "0x60806040526000600c60006101000a81548160ff0219169083151502179055506001600d5534801561003057600080fd5b50336000806101000a81548173ffffffffffffffffffffffffffffffffffffffff021916908373ffffffffffffffffffffffffffffffffffffffff1602179055506001620f424063ffffffff16901c600060146101000a81548163ffffffff021916908363ffffffff1602179055506103e8600060186101000a81548163ffffffff021916908363ffffffff16021790555060016000601c6101000a81548163ffffffff021916908363ffffffff1602179055506000600160006101000a81548163ffffffff021916908363ffffffff16021790555060006004819055506136cf8061011d6000396000f3fe608060405234801561001057600080fd5b50600436106101735760003560e01c80637b31ae64116100de578063c55dae6311610097578063ddca3f4311610071578063ddca3f4314610410578063e6d7059a1461042e578063ec3889b51461045e578063f340fa011461048f57610173565b8063c55dae63146103b8578063c7876ea4146103d6578063d5bcb9b5146103f457610173565b80637b31ae64146102f15780637efc77fa146103215780639dade07d1461033f578063a538c01a1461035e578063bc063e1a1461037c578063c45a01551461039a57610173565b80632e52d606116101305780632e52d6061461022b5780632ec2fe3d1461024957806334fbc9a11461026757806351cff8d91461028557806355237200146102b657806370bcb9bc146102d557610173565b8063047fc9aa146101785780630902f1ac146101965780630c7d5cd8146101b5578063217a4b70146101d357806321800fc3146101f15780632dd2a9211461020f575b600080fd5b6101806104bf565b60405161018d9190613471565b60405180910390f35b61019e6104c5565b6040516101ac92919061348c565b60405180910390f35b6101bd6104d6565b6040516101ca9190613531565b60405180910390f35b6101db6104ec565b6040516101e891906130a8565b60405180910390f35b6101f9610512565b6040516102069190613531565b60405180910390f35b61022960048036038101906102249190612701565b610528565b005b6102336105fc565b6040516102409190613531565b60405180910390f35b610251610612565b60405161025e91906130a8565b60405180910390f35b61026f610638565b60405161027c919061354c565b60405180910390f35b61029f600480360381019061029a9190612701565b61063d565b6040516102ad92919061348c565b60405180910390f35b6102be6109d6565b6040516102cc92919061348c565b60405180910390f35b6102ef60048036038101906102ea9190612753565b6109e7565b005b61030b60048036038101906103069190612891565b610d56565b6040516103189190613471565b60405180910390f35b610329610e5a565b60405161033691906130a8565b60405180910390f35b610347610e72565b60405161035592919061348c565b60405180910390f35b610366610e83565b6040516103739190613471565b60405180910390f35b610384610f87565b604051610391919061354c565b60405180910390f35b6103a2610f8c565b6040516103af91906130a8565b60405180910390f35b6103c0610fb0565b6040516103cd91906130a8565b60405180910390f35b6103de610fd6565b6040516103eb9190613471565b60405180910390f35b61040e600480360381019061040991906127f1565b6110da565b005b610418611b6e565b6040516104259190613531565b60405180910390f35b61044860048036038101906104439190612891565b611b84565b6040516104559190613471565b60405180910390f35b61047860048036038101906104739190612701565b611d25565b60405161048692919061348c565b60405180910390f35b6104a960048036038101906104a49190612701565b611f2e565b6040516104b69190613471565b60405180910390f35b60045481565b600080600654915060075490509091565b600060149054906101000a900463ffffffff1681565b600260009054906101000a900473ffffffffffffffffffffffffffffffffffffffff1681565b600060189054906101000a900463ffffffff1681565b600360009054906101000a900473ffffffffffffffffffffffffffffffffffffffff1673ffffffffffffffffffffffffffffffffffffffff163373ffffffffffffffffffffffffffffffffffffffff16146105b8576040517f08c379a00000000000000000000000000000000000000000000000000000000081526004016105af906133f1565b60405180910390fd5b80600360006101000a81548173ffffffffffffffffffffffffffffffffffffffff021916908373ffffffffffffffffffffffffffffffffffffffff16021790555050565b6000601c9054906101000a900463ffffffff1681565b600360009054906101000a900473ffffffffffffffffffffffffffffffffffffffff1681565b600181565b6000806001600d5414610685576040517f08c379a000000000000000000000000000000000000000000000000000000000815260040161067c90613451565b60405180910390fd5b6000600d81905550600560009054906101000a900473ffffffffffffffffffffffffffffffffffffffff1673ffffffffffffffffffffffffffffffffffffffff163373ffffffffffffffffffffffffffffffffffffffff161461071d576040517f08c379a0000000000000000000000000000000000000000000000000000000008152600401610714906132d1565b60405180910390fd5b600c60009054906101000a900460ff1661076c576040517f08c379a000000000000000000000000000000000000000000000000000000000815260040161076390613231565b60405180910390fd5b61082b600a54600160049054906101000a900473ffffffffffffffffffffffffffffffffffffffff1673ffffffffffffffffffffffffffffffffffffffff166370a08231306040518263ffffffff1660e01b81526004016107cd91906130a8565b60206040518083038186803b1580156107e557600080fd5b505afa1580156107f9573d6000803e3d6000fd5b505050506040513d601f19601f8201168201806040525081019061081d91906128ba565b6122cc90919063ffffffff16565b91506108ec600b54600260009054906101000a900473ffffffffffffffffffffffffffffffffffffffff1673ffffffffffffffffffffffffffffffffffffffff166370a08231306040518263ffffffff1660e01b815260040161088e91906130a8565b60206040518083038186803b1580156108a657600080fd5b505afa1580156108ba573d6000803e3d6000fd5b505050506040513d601f19601f820116820180604052508101906108de91906128ba565b6122cc90919063ffffffff16565b905061091b600160049054906101000a900473ffffffffffffffffffffffffffffffffffffffff16848461231c565b610948600260009054906101000a900473ffffffffffffffffffffffffffffffffffffffff16848361231c565b60006008819055600681905550600060098190556007819055508273ffffffffffffffffffffffffffffffffffffffff163373ffffffffffffffffffffffffffffffffffffffff167f8166bf25f8a2b7ed3c85049207da4358d16edbed977d23fa2ee6f0dde3ec213284846040516109c192919061348c565b60405180910390a36001600d81905550915091565b600080600a549150600b5490509091565b60008054906101000a900473ffffffffffffffffffffffffffffffffffffffff1673ffffffffffffffffffffffffffffffffffffffff163373ffffffffffffffffffffffffffffffffffffffff1614610a75576040517f08c379a0000000000000000000000000000000000000000000000000000000008152600401610a6c90613371565b60405180910390fd5b60008363ffffffff16118015610a9957506103e863ffffffff168363ffffffff1611155b610ad8576040517f08c379a0000000000000000000000000000000000000000000000000000000008152600401610acf90613191565b60405180910390fd5b60008263ffffffff16118015610afb5750600363ffffffff168263ffffffff1611155b610b3a576040517f08c379a0000000000000000000000000000000000000000000000000000000008152600401610b31906132b1565b60405180910390fd5b600a60ff168163ffffffff161115610b87576040517f08c379a0000000000000000000000000000000000000000000000000000000008152600401610b7e90613291565b60405180910390fd5b86600560006101000a81548173ffffffffffffffffffffffffffffffffffffffff021916908373ffffffffffffffffffffffffffffffffffffffff16021790555085600160046101000a81548173ffffffffffffffffffffffffffffffffffffffff021916908373ffffffffffffffffffffffffffffffffffffffff16021790555084600260006101000a81548173ffffffffffffffffffffffffffffffffffffffff021916908373ffffffffffffffffffffffffffffffffffffffff16021790555083600360006101000a81548173ffffffffffffffffffffffffffffffffffffffff021916908373ffffffffffffffffffffffffffffffffffffffff16021790555082600060186101000a81548163ffffffff021916908363ffffffff160217905550816000601c6101000a81548163ffffffff021916908363ffffffff16021790555080600160006101000a81548163ffffffff021916908363ffffffff1602179055506000600481905550610d2d60016000601c9054906101000a900463ffffffff160163ffffffff16620f424063ffffffff166124a790919063ffffffff16565b600060146101000a81548163ffffffff021916908363ffffffff16021790555050505050505050565b6000600c60009054906101000a900460ff16610da7576040517f08c379a0000000000000000000000000000000000000000000000000000000008152600401610d9e906133d1565b60405180910390fd5b610daf612503565b73ffffffffffffffffffffffffffffffffffffffff166376cf0b56600454600754600060149054906101000a900463ffffffff16866040518563ffffffff1660e01b8152600401610e0394939291906134ec565b60206040518083038186803b158015610e1b57600080fd5b505afa158015610e2f573d6000803e3d6000fd5b505050506040513d601f19601f82011682018060405250810190610e5391906128ba565b9050919050565b7331b2d5f134de0a737360693ed5d5bd42b705bca281565b600080600854915060095490509091565b6000600c60009054906101000a900460ff16610ed4576040517f08c379a0000000000000000000000000000000000000000000000000000000008152600401610ecb90613151565b60405180910390fd5b610f82600260009054906101000a900473ffffffffffffffffffffffffffffffffffffffff1673ffffffffffffffffffffffffffffffffffffffff1663313ce5676040518163ffffffff1660e01b815260040160206040518083038186803b158015610f3f57600080fd5b505afa158015610f53573d6000803e3d6000fd5b505050506040513d601f19601f82011682018060405250810190610f7791906128e3565b60ff16600a0a611b84565b905090565b600a81565b60008054906101000a900473ffffffffffffffffffffffffffffffffffffffff1681565b600160049054906101000a900473ffffffffffffffffffffffffffffffffffffffff1681565b6000600c60009054906101000a900460ff16611027576040517f08c379a000000000000000000000000000000000000000000000000000000000815260040161101e90613211565b60405180910390fd5b6110d5600160049054906101000a900473ffffffffffffffffffffffffffffffffffffffff1673ffffffffffffffffffffffffffffffffffffffff1663313ce5676040518163ffffffff1660e01b815260040160206040518083038186803b15801561109257600080fd5b505afa1580156110a6573d6000803e3d6000fd5b505050506040513d601f19601f820116820180604052508101906110ca91906128e3565b60ff16600a0a610d56565b905090565b6001600d541461111f576040517f08c379a000000000000000000000000000000000000000000000000000000000815260040161111690613451565b60405180910390fd5b6000600d81905550600c60009054906101000a900460ff16611176576040517f08c379a000000000000000000000000000000000000000000000000000000000815260040161116d90613391565b60405180910390fd5b600160049054906101000a900473ffffffffffffffffffffffffffffffffffffffff1673ffffffffffffffffffffffffffffffffffffffff168573ffffffffffffffffffffffffffffffffffffffff16148061121f5750600260009054906101000a900473ffffffffffffffffffffffffffffffffffffffff1673ffffffffffffffffffffffffffffffffffffffff168573ffffffffffffffffffffffffffffffffffffffff16145b80156112d05750600160049054906101000a900473ffffffffffffffffffffffffffffffffffffffff1673ffffffffffffffffffffffffffffffffffffffff168473ffffffffffffffffffffffffffffffffffffffff1614806112cf5750600260009054906101000a900473ffffffffffffffffffffffffffffffffffffffff1673ffffffffffffffffffffffffffffffffffffffff168473ffffffffffffffffffffffffffffffffffffffff16145b5b61130f576040517f08c379a000000000000000000000000000000000000000000000000000000000815260040161130690613351565b60405180910390fd5b600160049054906101000a900473ffffffffffffffffffffffffffffffffffffffff1673ffffffffffffffffffffffffffffffffffffffff168173ffffffffffffffffffffffffffffffffffffffff16141580156113bb5750600260009054906101000a900473ffffffffffffffffffffffffffffffffffffffff1673ffffffffffffffffffffffffffffffffffffffff168173ffffffffffffffffffffffffffffffffffffffff1614155b6113fa576040517f08c379a00000000000000000000000000000000000000000000000000000000081526004016113f190613251565b60405180910390fd5b60008211801561140a5750600083115b611449576040517f08c379a000000000000000000000000000000000000000000000000000000000815260040161144090613431565b60405180910390fd5b61145484828461231c565b600080600160049054906101000a900473ffffffffffffffffffffffffffffffffffffffff1673ffffffffffffffffffffffffffffffffffffffff168773ffffffffffffffffffffffffffffffffffffffff16141561158c576006549050611585600a54611577600854600160049054906101000a900473ffffffffffffffffffffffffffffffffffffffff1673ffffffffffffffffffffffffffffffffffffffff166370a08231306040518263ffffffff1660e01b815260040161151991906130a8565b60206040518083038186803b15801561153157600080fd5b505afa158015611545573d6000803e3d6000fd5b505050506040513d601f19601f8201168201806040525081019061156991906128ba565b6122cc90919063ffffffff16565b6122cc90919063ffffffff16565b91506116be565b600260009054906101000a900473ffffffffffffffffffffffffffffffffffffffff1673ffffffffffffffffffffffffffffffffffffffff168773ffffffffffffffffffffffffffffffffffffffff1614156116bd5760075490506116ba600b546116ac600954600260009054906101000a900473ffffffffffffffffffffffffffffffffffffffff1673ffffffffffffffffffffffffffffffffffffffff166370a08231306040518263ffffffff1660e01b815260040161164e91906130a8565b60206040518083038186803b15801561166657600080fd5b505afa15801561167a573d6000803e3d6000fd5b505050506040513d601f19601f8201168201806040525081019061169e91906128ba565b6122cc90919063ffffffff16565b6122cc90919063ffffffff16565b91505b5b60008183116116ce5760006116d2565b8183035b905080861115611717576040517f08c379a000000000000000000000000000000000000000000000000000000000815260040161170e90613311565b60405180910390fd5b60006103e861174b600160009054906101000a900463ffffffff166103e80363ffffffff16896125a990919063ffffffff16565b8161175257fe5b04905060006103e8611779600160ff166103e80361ffff168a6125a990919063ffffffff16565b8161178057fe5b04905060006103e86117bd600160ff16600160009054906101000a900463ffffffff16016103e80363ffffffff168b6125a990919063ffffffff16565b816117c457fe5b049050600160049054906101000a900473ffffffffffffffffffffffffffffffffffffffff1673ffffffffffffffffffffffffffffffffffffffff168a73ffffffffffffffffffffffffffffffffffffffff16141561195c578761182782611b84565b14611867576040517f08c379a000000000000000000000000000000000000000000000000000000000815260040161185e906133b1565b60405180910390fd5b6006548811156118ac576040517f08c379a00000000000000000000000000000000000000000000000000000000081526004016118a390613171565b60405180910390fd5b6118c18860045461261990919063ffffffff16565b6004819055506118dc8160075461261990919063ffffffff16565b6007819055506118f7886006546122cc90919063ffffffff16565b600681905550611924836119168b60095461261990919063ffffffff16565b6122cc90919063ffffffff16565b600981905550611951826119438b600b5461261990919063ffffffff16565b6122cc90919063ffffffff16565b600b81905550611aee565b600260009054906101000a900473ffffffffffffffffffffffffffffffffffffffff1673ffffffffffffffffffffffffffffffffffffffff168a73ffffffffffffffffffffffffffffffffffffffff161415611aed57876119bc82610d56565b146119fc576040517f08c379a00000000000000000000000000000000000000000000000000000000081526004016119f3906131d1565b60405180910390fd5b600754881115611a41576040517f08c379a0000000000000000000000000000000000000000000000000000000008152600401611a38906131f1565b60405180910390fd5b611a56816004546122cc90919063ffffffff16565b600481905550611a71886007546122cc90919063ffffffff16565b600781905550611a8c8160065461261990919063ffffffff16565b600681905550611ab983611aab8b60085461261990919063ffffffff16565b6122cc90919063ffffffff16565b600881905550611ae682611ad88b600a5461261990919063ffffffff16565b6122cc90919063ffffffff16565b600a819055505b5b8673ffffffffffffffffffffffffffffffffffffffff163373ffffffffffffffffffffffffffffffffffffffff167f54787c404bb33c88e86f4baf88183a3b0141d0a848e6a9f7a13b66ae3a9b73d18d8d8d8d604051611b5194939291906130c3565b60405180910390a35050505050506001600d819055505050505050565b600160009054906101000a900463ffffffff1681565b6000600c60009054906101000a900460ff16611bd5576040517f08c379a0000000000000000000000000000000000000000000000000000000008152600401611bcc906133d1565b60405180910390fd5b60006004541415611c7157611c6a611c26600060149054906101000a900463ffffffff1663ffffffff16600060189054906101000a900463ffffffff1663ffffffff166125a990919063ffffffff16565b611c5c620f424063ffffffff16611c4e6103e863ffffffff16876125a990919063ffffffff16565b6125a990919063ffffffff16565b6124a790919063ffffffff16565b9050611d20565b611c79612503565b73ffffffffffffffffffffffffffffffffffffffff1663f3250fe2600454600754600060149054906101000a900463ffffffff16866040518563ffffffff1660e01b8152600401611ccd94939291906134ec565b60206040518083038186803b158015611ce557600080fd5b505afa158015611cf9573d6000803e3d6000fd5b505050506040513d601f19601f82011682018060405250810190611d1d91906128ba565b90505b919050565b6000806001600d5414611d6d576040517f08c379a0000000000000000000000000000000000000000000000000000000008152600401611d6490613451565b60405180910390fd5b6000600d819055507331b2d5f134de0a737360693ed5d5bd42b705bca273ffffffffffffffffffffffffffffffffffffffff163373ffffffffffffffffffffffffffffffffffffffff1614611df7576040517f08c379a0000000000000000000000000000000000000000000000000000000008152600401611dee906132d1565b60405180910390fd5b600c60009054906101000a900460ff16611e46576040517f08c379a0000000000000000000000000000000000000000000000000000000008152600401611e3d90613231565b60405180910390fd5b600a549150600b549050611e7d600160049054906101000a900473ffffffffffffffffffffffffffffffffffffffff16848461231c565b611eaa600260009054906101000a900473ffffffffffffffffffffffffffffffffffffffff16848361231c565b6000600a819055506000600b819055508273ffffffffffffffffffffffffffffffffffffffff163373ffffffffffffffffffffffffffffffffffffffff167ffefe98d2f91f55619f0b737e514b21b1425ad73d0ed4684bf1b51547575fe8848484604051611f1992919061348c565b60405180910390a36001600d81905550915091565b60006001600d5414611f75576040517f08c379a0000000000000000000000000000000000000000000000000000000008152600401611f6c90613451565b60405180910390fd5b6000600d81905550600560009054906101000a900473ffffffffffffffffffffffffffffffffffffffff1673ffffffffffffffffffffffffffffffffffffffff163373ffffffffffffffffffffffffffffffffffffffff161461200d576040517f08c379a000000000000000000000000000000000000000000000000000000000815260040161200490613271565b60405180910390fd5b60001515600c60009054906101000a900460ff16151514612063576040517f08c379a000000000000000000000000000000000000000000000000000000000815260040161205a90613331565b60405180910390fd5b600160049054906101000a900473ffffffffffffffffffffffffffffffffffffffff1673ffffffffffffffffffffffffffffffffffffffff166370a08231306040518263ffffffff1660e01b81526004016120be91906130a8565b60206040518083038186803b1580156120d657600080fd5b505afa1580156120ea573d6000803e3d6000fd5b505050506040513d601f19601f8201168201806040525081019061210e91906128ba565b600681905550600260009054906101000a900473ffffffffffffffffffffffffffffffffffffffff1673ffffffffffffffffffffffffffffffffffffffff166370a08231306040518263ffffffff1660e01b815260040161216f91906130a8565b60206040518083038186803b15801561218757600080fd5b505afa15801561219b573d6000803e3d6000fd5b505050506040513d601f19601f820116820180604052508101906121bf91906128ba565b6007819055506001600c60006101000a81548160ff02191690831515021790555060006007541115612252576121f6600754611b84565b905080600481905550600081111561225157612235600160049054906101000a900473ffffffffffffffffffffffffffffffffffffffff16838361231c565b61224a816006546122cc90919063ffffffff16565b6006819055505b5b8173ffffffffffffffffffffffffffffffffffffffff163373ffffffffffffffffffffffffffffffffffffffff167fede963da60ce3b657af455d654d08ff95549f13a4acb219b68756f68755e28e3600654600754856040516122b7939291906134b5565b60405180910390a36001600d81905550919050565b600081831015612311576040517f08c379a000000000000000000000000000000000000000000000000000000000815260040161230890613411565b60405180910390fd5b818303905092915050565b600060608473ffffffffffffffffffffffffffffffffffffffff166040518060400160405280601981526020017f7472616e7366657228616464726573732c75696e743235362900000000000000815250805190602001208585604051602401612387929190613108565b604051602081830303815290604052907bffffffffffffffffffffffffffffffffffffffffffffffffffffffff19166020820180517bffffffffffffffffffffffffffffffffffffffffffffffffffffffff83818316178352505050506040516123f19190613091565b6000604051808303816000865af19150503d806000811461242e576040519150601f19603f3d011682016040523d82523d6000602084013e612433565b606091505b5091509150818015612461575060008151148061246057508080602001905181019061245f9190612868565b5b5b6124a0576040517f08c379a000000000000000000000000000000000000000000000000000000000815260040161249790613131565b60405180910390fd5b5050505050565b60008082116124eb576040517f08c379a00000000000000000000000000000000000000000000000000000000081526004016124e2906132f1565b60405180910390fd5b60008284816124f657fe5b0490508091505092915050565b60008060009054906101000a900473ffffffffffffffffffffffffffffffffffffffff1673ffffffffffffffffffffffffffffffffffffffff16634b75f54f6040518163ffffffff1660e01b815260040160206040518083038186803b15801561256c57600080fd5b505afa158015612580573d6000803e3d6000fd5b505050506040513d601f19601f820116820180604052508101906125a4919061272a565b905090565b6000808314156125bc5760009050612613565b60008284029050828482816125cd57fe5b041461260e576040517f08c379a0000000000000000000000000000000000000000000000000000000008152600401612605906131b1565b60405180910390fd5b809150505b92915050565b600080828401905083811015612664576040517f08c379a000000000000000000000000000000000000000000000000000000000815260040161265b906131b1565b60405180910390fd5b8091505092915050565b60008135905061267d81613626565b92915050565b60008151905061269281613626565b92915050565b6000815190506126a78161363d565b92915050565b6000813590506126bc81613654565b92915050565b6000815190506126d181613654565b92915050565b6000813590506126e68161366b565b92915050565b6000815190506126fb81613682565b92915050565b60006020828403121561271357600080fd5b60006127218482850161266e565b91505092915050565b60006020828403121561273c57600080fd5b600061274a84828501612683565b91505092915050565b600080600080600080600060e0888a03121561276e57600080fd5b600061277c8a828b0161266e565b975050602061278d8a828b0161266e565b965050604061279e8a828b0161266e565b95505060606127af8a828b0161266e565b94505060806127c08a828b016126d7565b93505060a06127d18a828b016126d7565b92505060c06127e28a828b016126d7565b91505092959891949750929550565b600080600080600060a0868803121561280957600080fd5b60006128178882890161266e565b95505060206128288882890161266e565b9450506040612839888289016126ad565b935050606061284a888289016126ad565b925050608061285b8882890161266e565b9150509295509295909350565b60006020828403121561287a57600080fd5b600061288884828501612698565b91505092915050565b6000602082840312156128a357600080fd5b60006128b1848285016126ad565b91505092915050565b6000602082840312156128cc57600080fd5b60006128da848285016126c2565b91505092915050565b6000602082840312156128f557600080fd5b6000612903848285016126ec565b91505092915050565b6129158161358e565b82525050565b600061292682613567565b6129308185613572565b93506129408185602086016135f3565b80840191505092915050565b600061295960188361357d565b91507f44414f666956313a205452414e534645525f4641494c454400000000000000006000830152602082019050919050565b600061299960228361357d565b91507f44414f666956313a20554e494e495449414c495a45445f51554f54455f50524960008301527f43450000000000000000000000000000000000000000000000000000000000006020830152604082019050919050565b60006129ff60228361357d565b91507f44414f666956313a20494e53554646494349454e545f424153455f524553455260008301527f56450000000000000000000000000000000000000000000000000000000000006020830152604082019050919050565b6000612a6560208361357d565b91507f44414f666956313a20494e56414c49445f534c4f50455f4e554d455241544f526000830152602082019050919050565b6000612aa5600c8361357d565b91507f4552525f4f564552464c4f5700000000000000000000000000000000000000006000830152602082019050919050565b6000612ae5601d8361357d565b91507f44414f666956313a20494e56414c49445f51554f54455f4f55545055540000006000830152602082019050919050565b6000612b2560238361357d565b91507f44414f666956313a20494e53554646494349454e545f51554f54455f5245534560008301527f52564500000000000000000000000000000000000000000000000000000000006020830152604082019050919050565b6000612b8b60218361357d565b91507f44414f666956313a20554e494e495449414c495a45445f424153455f5052494360008301527f45000000000000000000000000000000000000000000000000000000000000006020830152604082019050919050565b6000612bf160168361357d565b91507f44414f666956313a20554e494e495449414c495a4544000000000000000000006000830152602082019050919050565b6000612c3160138361357d565b91507f44414f666956313a20494e56414c49445f544f000000000000000000000000006000830152602082019050919050565b6000612c71601a8361357d565b91507f44414f666956313a20464f5242494444454e5f4445504f5349540000000000006000830152602082019050919050565b6000612cb160148361357d565b91507f44414f666956313a20494e56414c49445f4645450000000000000000000000006000830152602082019050919050565b6000612cf160128361357d565b91507f44414f666956313a20494e56414c49445f4e00000000000000000000000000006000830152602082019050919050565b6000612d31601b8361357d565b91507f44414f666956313a20464f5242494444454e5f574954484452415700000000006000830152602082019050919050565b6000612d7160128361357d565b91507f4552525f4449564944455f42595f5a45524f00000000000000000000000000006000830152602082019050919050565b6000612db1601f8361357d565b91507f44414f666956313a20494e434f52524543545f494e5055545f414d4f554e54006000830152602082019050919050565b6000612df160178361357d565b91507f44414f666956313a20444f55424c455f4445504f5349540000000000000000006000830152602082019050919050565b6000612e3160198361357d565b91507f44414f666956313a20494e434f52524543545f544f4b454e53000000000000006000830152602082019050919050565b6000612e7160128361357d565b91507f44414f666956313a20464f5242494444454e00000000000000000000000000006000830152602082019050919050565b6000612eb1601b8361357d565b91507f44414f666956313a20554e494e495449414c495a45445f5357415000000000006000830152602082019050919050565b6000612ef1601c8361357d565b91507f44414f666956313a20494e56414c49445f424153455f4f5554505554000000006000830152602082019050919050565b6000612f31601a8361357d565b91507f44414f66695631506169723a20554e494e495449414c495a45440000000000006000830152602082019050919050565b6000612f71601d8361357d565b91507f44414f666956313a20464f5242494444454e5f504149525f4f574e45520000006000830152602082019050919050565b6000612fb1600d8361357d565b91507f4552525f554e444552464c4f57000000000000000000000000000000000000006000830152602082019050919050565b6000612ff1601f8361357d565b91507f44414f666956313a20494e53554646494349454e545f494f5f414d4f554e54006000830152602082019050919050565b6000613031600f8361357d565b91507f44414f666956313a204c4f434b454400000000000000000000000000000000006000830152602082019050919050565b61306d816135cc565b82525050565b61307c816135d6565b82525050565b61308b816135e6565b82525050565b600061309d828461291b565b915081905092915050565b60006020820190506130bd600083018461290c565b92915050565b60006080820190506130d8600083018761290c565b6130e5602083018661290c565b6130f26040830185613064565b6130ff6060830184613064565b95945050505050565b600060408201905061311d600083018561290c565b61312a6020830184613064565b9392505050565b6000602082019050818103600083015261314a8161294c565b9050919050565b6000602082019050818103600083015261316a8161298c565b9050919050565b6000602082019050818103600083015261318a816129f2565b9050919050565b600060208201905081810360008301526131aa81612a58565b9050919050565b600060208201905081810360008301526131ca81612a98565b9050919050565b600060208201905081810360008301526131ea81612ad8565b9050919050565b6000602082019050818103600083015261320a81612b18565b9050919050565b6000602082019050818103600083015261322a81612b7e565b9050919050565b6000602082019050818103600083015261324a81612be4565b9050919050565b6000602082019050818103600083015261326a81612c24565b9050919050565b6000602082019050818103600083015261328a81612c64565b9050919050565b600060208201905081810360008301526132aa81612ca4565b9050919050565b600060208201905081810360008301526132ca81612ce4565b9050919050565b600060208201905081810360008301526132ea81612d24565b9050919050565b6000602082019050818103600083015261330a81612d64565b9050919050565b6000602082019050818103600083015261332a81612da4565b9050919050565b6000602082019050818103600083015261334a81612de4565b9050919050565b6000602082019050818103600083015261336a81612e24565b9050919050565b6000602082019050818103600083015261338a81612e64565b9050919050565b600060208201905081810360008301526133aa81612ea4565b9050919050565b600060208201905081810360008301526133ca81612ee4565b9050919050565b600060208201905081810360008301526133ea81612f24565b9050919050565b6000602082019050818103600083015261340a81612f64565b9050919050565b6000602082019050818103600083015261342a81612fa4565b9050919050565b6000602082019050818103600083015261344a81612fe4565b9050919050565b6000602082019050818103600083015261346a81613024565b9050919050565b60006020820190506134866000830184613064565b92915050565b60006040820190506134a16000830185613064565b6134ae6020830184613064565b9392505050565b60006060820190506134ca6000830186613064565b6134d76020830185613064565b6134e46040830184613064565b949350505050565b60006080820190506135016000830187613064565b61350e6020830186613064565b61351b6040830185613073565b6135286060830184613064565b95945050505050565b60006020820190506135466000830184613073565b92915050565b60006020820190506135616000830184613082565b92915050565b600081519050919050565b600081905092915050565b600082825260208201905092915050565b6000613599826135ac565b9050919050565b60008115159050919050565b600073ffffffffffffffffffffffffffffffffffffffff82169050919050565b6000819050919050565b600063ffffffff82169050919050565b600060ff82169050919050565b60005b838110156136115780820151818401526020810190506135f6565b83811115613620576000848401525b50505050565b61362f8161358e565b811461363a57600080fd5b50565b613646816135a0565b811461365157600080fd5b50565b61365d816135cc565b811461366857600080fd5b50565b613674816135d6565b811461367f57600080fd5b50565b61368b816135e6565b811461369657600080fd5b5056fea26469706673582212206c48fbfef068dbe602609f1c9a7f1ecd620aaacb8efb1a3b1058ef7f58715e2a64736f6c63430007040033",
  "linkReferences": {},
  "deployedLinkReferences": {}
}