{
  "_format": "hh-sol-artifact-1",
  "contractName": "DAOfiV1Pair",
  "sourceName": "contracts/DAOfiV1Pair.sol",
  "abi": [
    {
      "inputs": [],
      "stateMutability": "nonpayable",
      "type": "constructor"
    },
    {
      "anonymous": false,
      "inputs": [
        {
          "indexed": true,
          "internalType": "address",
          "name": "sender",
          "type": "address"
        },
        {
          "indexed": false,
          "internalType": "uint256",
          "name": "amountBase",
          "type": "uint256"
        },
        {
          "indexed": false,
          "internalType": "uint256",
          "name": "amountQuote",
          "type": "uint256"
        },
        {
          "indexed": false,
          "internalType": "uint256",
          "name": "output",
          "type": "uint256"
        },
        {
          "indexed": true,
          "internalType": "address",
          "name": "to",
          "type": "address"
        }
      ],
      "name": "Deposit",
      "type": "event"
    },
    {
      "anonymous": false,
      "inputs": [
        {
          "indexed": true,
          "internalType": "address",
          "name": "pair",
          "type": "address"
        },
        {
          "indexed": true,
          "internalType": "address",
          "name": "sender",
          "type": "address"
        },
        {
          "indexed": false,
          "internalType": "address",
          "name": "tokenIn",
          "type": "address"
        },
        {
          "indexed": false,
          "internalType": "address",
          "name": "tokenOut",
          "type": "address"
        },
        {
          "indexed": false,
          "internalType": "uint256",
          "name": "amountIn",
          "type": "uint256"
        },
        {
          "indexed": false,
          "internalType": "uint256",
          "name": "amountOut",
          "type": "uint256"
        },
        {
          "indexed": true,
          "internalType": "address",
          "name": "to",
          "type": "address"
        }
      ],
      "name": "Swap",
      "type": "event"
    },
    {
      "anonymous": false,
      "inputs": [
        {
          "indexed": true,
          "internalType": "address",
          "name": "sender",
          "type": "address"
        },
        {
          "indexed": false,
          "internalType": "uint256",
          "name": "amountBase",
          "type": "uint256"
        },
        {
          "indexed": false,
          "internalType": "uint256",
          "name": "amountQuote",
          "type": "uint256"
        },
        {
          "indexed": true,
          "internalType": "address",
          "name": "to",
          "type": "address"
        }
      ],
      "name": "Withdraw",
      "type": "event"
    },
    {
      "anonymous": false,
      "inputs": [
        {
          "indexed": true,
          "internalType": "address",
          "name": "sender",
          "type": "address"
        },
        {
          "indexed": false,
          "internalType": "uint256",
          "name": "amountBase",
          "type": "uint256"
        },
        {
          "indexed": false,
          "internalType": "uint256",
          "name": "amountQuote",
          "type": "uint256"
        },
        {
          "indexed": true,
          "internalType": "address",
          "name": "to",
          "type": "address"
        }
      ],
      "name": "WithdrawFees",
      "type": "event"
    },
    {
      "inputs": [],
      "name": "MAX_FEE",
      "outputs": [
        {
          "internalType": "uint8",
          "name": "",
          "type": "uint8"
        }
      ],
      "stateMutability": "view",
      "type": "function"
    },
    {
      "inputs": [],
      "name": "PLATFORM",
      "outputs": [
        {
          "internalType": "address",
          "name": "",
          "type": "address"
        }
      ],
      "stateMutability": "view",
      "type": "function"
    },
    {
      "inputs": [],
      "name": "PLATFORM_FEE",
      "outputs": [
        {
          "internalType": "uint8",
          "name": "",
          "type": "uint8"
        }
      ],
      "stateMutability": "view",
      "type": "function"
    },
    {
      "inputs": [],
      "name": "basePrice",
      "outputs": [
        {
          "internalType": "uint256",
          "name": "price",
          "type": "uint256"
        }
      ],
      "stateMutability": "view",
      "type": "function"
    },
    {
      "inputs": [],
      "name": "baseToken",
      "outputs": [
        {
          "internalType": "address",
          "name": "",
          "type": "address"
        }
      ],
      "stateMutability": "view",
      "type": "function"
    },
    {
      "inputs": [
        {
          "internalType": "address",
          "name": "to",
          "type": "address"
        }
      ],
      "name": "deposit",
      "outputs": [
        {
          "internalType": "uint256",
          "name": "amountBaseOut",
          "type": "uint256"
        }
      ],
      "stateMutability": "nonpayable",
      "type": "function"
    },
    {
      "inputs": [],
      "name": "factory",
      "outputs": [
        {
          "internalType": "address",
          "name": "",
          "type": "address"
        }
      ],
      "stateMutability": "view",
      "type": "function"
    },
    {
      "inputs": [],
      "name": "fee",
      "outputs": [
        {
          "internalType": "uint32",
          "name": "",
          "type": "uint32"
        }
      ],
      "stateMutability": "view",
      "type": "function"
    },
    {
      "inputs": [
        {
          "internalType": "uint256",
          "name": "amountQuoteIn",
          "type": "uint256"
        }
      ],
      "name": "getBaseOut",
      "outputs": [
        {
          "internalType": "uint256",
          "name": "amountBaseOut",
          "type": "uint256"
        }
      ],
      "stateMutability": "view",
      "type": "function"
    },
    {
      "inputs": [],
      "name": "getOwnerFees",
      "outputs": [
        {
          "internalType": "uint256",
          "name": "feesBase",
          "type": "uint256"
        },
        {
          "internalType": "uint256",
          "name": "feesQuote",
          "type": "uint256"
        }
      ],
      "stateMutability": "view",
      "type": "function"
    },
    {
      "inputs": [],
      "name": "getPlatformFees",
      "outputs": [
        {
          "internalType": "uint256",
          "name": "feesBase",
          "type": "uint256"
        },
        {
          "internalType": "uint256",
          "name": "feesQuote",
          "type": "uint256"
        }
      ],
      "stateMutability": "view",
      "type": "function"
    },
    {
      "inputs": [
        {
          "internalType": "uint256",
          "name": "amountBaseIn",
          "type": "uint256"
        }
      ],
      "name": "getQuoteOut",
      "outputs": [
        {
          "internalType": "uint256",
          "name": "amountQuoteOut",
          "type": "uint256"
        }
      ],
      "stateMutability": "view",
      "type": "function"
    },
    {
      "inputs": [],
      "name": "getReserves",
      "outputs": [
        {
          "internalType": "uint256",
          "name": "_reserveBase",
          "type": "uint256"
        },
        {
          "internalType": "uint256",
          "name": "_reserveQuote",
          "type": "uint256"
        }
      ],
      "stateMutability": "view",
      "type": "function"
    },
    {
      "inputs": [
        {
          "internalType": "address",
          "name": "_router",
          "type": "address"
        },
        {
          "internalType": "address",
          "name": "_baseToken",
          "type": "address"
        },
        {
          "internalType": "address",
          "name": "_quoteToken",
          "type": "address"
        },
        {
          "internalType": "address",
          "name": "_pairOwner",
          "type": "address"
        },
        {
          "internalType": "uint32",
          "name": "_slopeNumerator",
          "type": "uint32"
        },
        {
          "internalType": "uint32",
          "name": "_n",
          "type": "uint32"
        },
        {
          "internalType": "uint32",
          "name": "_fee",
          "type": "uint32"
        }
      ],
      "name": "initialize",
      "outputs": [],
      "stateMutability": "nonpayable",
      "type": "function"
    },
    {
      "inputs": [],
      "name": "n",
      "outputs": [
        {
          "internalType": "uint32",
          "name": "",
          "type": "uint32"
        }
      ],
      "stateMutability": "view",
      "type": "function"
    },
    {
      "inputs": [],
      "name": "pairOwner",
      "outputs": [
        {
          "internalType": "address",
          "name": "",
          "type": "address"
        }
      ],
      "stateMutability": "view",
      "type": "function"
    },
    {
      "inputs": [],
      "name": "quotePrice",
      "outputs": [
        {
          "internalType": "uint256",
          "name": "price",
          "type": "uint256"
        }
      ],
      "stateMutability": "view",
      "type": "function"
    },
    {
      "inputs": [],
      "name": "quoteToken",
      "outputs": [
        {
          "internalType": "address",
          "name": "",
          "type": "address"
        }
      ],
      "stateMutability": "view",
      "type": "function"
    },
    {
      "inputs": [],
      "name": "reserveRatio",
      "outputs": [
        {
          "internalType": "uint32",
          "name": "",
          "type": "uint32"
        }
      ],
      "stateMutability": "view",
      "type": "function"
    },
    {
      "inputs": [
        {
          "internalType": "address",
          "name": "_nextOwner",
          "type": "address"
        }
      ],
      "name": "setPairOwner",
      "outputs": [],
      "stateMutability": "nonpayable",
      "type": "function"
    },
    {
      "inputs": [],
      "name": "slopeNumerator",
      "outputs": [
        {
          "internalType": "uint32",
          "name": "",
          "type": "uint32"
        }
      ],
      "stateMutability": "view",
      "type": "function"
    },
    {
      "inputs": [],
      "name": "supply",
      "outputs": [
        {
          "internalType": "uint256",
          "name": "",
          "type": "uint256"
        }
      ],
      "stateMutability": "view",
      "type": "function"
    },
    {
      "inputs": [
        {
          "internalType": "address",
          "name": "tokenIn",
          "type": "address"
        },
        {
          "internalType": "address",
          "name": "tokenOut",
          "type": "address"
        },
        {
          "internalType": "uint256",
          "name": "amountIn",
          "type": "uint256"
        },
        {
          "internalType": "uint256",
          "name": "amountOut",
          "type": "uint256"
        },
        {
          "internalType": "address",
          "name": "to",
          "type": "address"
        }
      ],
      "name": "swap",
      "outputs": [],
      "stateMutability": "nonpayable",
      "type": "function"
    },
    {
      "inputs": [
        {
          "internalType": "address",
          "name": "to",
          "type": "address"
        }
      ],
      "name": "withdraw",
      "outputs": [
        {
          "internalType": "uint256",
          "name": "amountBase",
          "type": "uint256"
        },
        {
          "internalType": "uint256",
          "name": "amountQuote",
          "type": "uint256"
        }
      ],
      "stateMutability": "nonpayable",
      "type": "function"
    },
    {
      "inputs": [
        {
          "internalType": "address",
          "name": "to",
          "type": "address"
        }
      ],
      "name": "withdrawPlatformFees",
      "outputs": [
        {
          "internalType": "uint256",
          "name": "amountBase",
          "type": "uint256"
        },
        {
          "internalType": "uint256",
          "name": "amountQuote",
          "type": "uint256"
        }
      ],
      "stateMutability": "nonpayable",
      "type": "function"
    }
  ],
  "bytecode": "0x60806040526000600c60006101000a81548160ff0219169083151502179055506001600d5534801561003057600080fd5b50336000806101000a81548173ffffffffffffffffffffffffffffffffffffffff021916908373ffffffffffffffffffffffffffffffffffffffff1602179055506001620f424063ffffffff16901c600060146101000a81548163ffffffff021916908363ffffffff1602179055506103e8600060186101000a81548163ffffffff021916908363ffffffff16021790555060016000601c6101000a81548163ffffffff021916908363ffffffff1602179055506000600160006101000a81548163ffffffff021916908363ffffffff16021790555060006004819055506136e78061011d6000396000f3fe608060405234801561001057600080fd5b50600436106101735760003560e01c80637b31ae64116100de578063c55dae6311610097578063ddca3f4311610071578063ddca3f4314610410578063e6d7059a1461042e578063ec3889b51461045e578063f340fa011461048f57610173565b8063c55dae63146103b8578063c7876ea4146103d6578063d5bcb9b5146103f457610173565b80637b31ae64146102f15780637efc77fa146103215780639dade07d1461033f578063a538c01a1461035e578063bc063e1a1461037c578063c45a01551461039a57610173565b80632e52d606116101305780632e52d6061461022b5780632ec2fe3d1461024957806334fbc9a11461026757806351cff8d91461028557806355237200146102b657806370bcb9bc146102d557610173565b8063047fc9aa146101785780630902f1ac146101965780630c7d5cd8146101b5578063217a4b70146101d357806321800fc3146101f15780632dd2a9211461020f575b600080fd5b6101806104bf565b60405161018d9190613489565b60405180910390f35b61019e6104c5565b6040516101ac9291906134a4565b60405180910390f35b6101bd6104d6565b6040516101ca9190613549565b60405180910390f35b6101db6104ec565b6040516101e891906130c0565b60405180910390f35b6101f9610512565b6040516102069190613549565b60405180910390f35b61022960048036038101906102249190612719565b610528565b005b6102336105fc565b6040516102409190613549565b60405180910390f35b610251610612565b60405161025e91906130c0565b60405180910390f35b61026f610638565b60405161027c9190613564565b60405180910390f35b61029f600480360381019061029a9190612719565b61063d565b6040516102ad9291906134a4565b60405180910390f35b6102be6109d6565b6040516102cc9291906134a4565b60405180910390f35b6102ef60048036038101906102ea919061276b565b6109e7565b005b61030b600480360381019061030691906128a9565b610d56565b6040516103189190613489565b60405180910390f35b610329610e5a565b60405161033691906130c0565b60405180910390f35b610347610e72565b6040516103559291906134a4565b60405180910390f35b610366610e83565b6040516103739190613489565b60405180910390f35b610384610f87565b6040516103919190613564565b60405180910390f35b6103a2610f8c565b6040516103af91906130c0565b60405180910390f35b6103c0610fb0565b6040516103cd91906130c0565b60405180910390f35b6103de610fd6565b6040516103eb9190613489565b60405180910390f35b61040e60048036038101906104099190612809565b6110da565b005b610418611b86565b6040516104259190613549565b60405180910390f35b610448600480360381019061044391906128a9565b611b9c565b6040516104559190613489565b60405180910390f35b61047860048036038101906104739190612719565b611d3d565b6040516104869291906134a4565b60405180910390f35b6104a960048036038101906104a49190612719565b611f46565b6040516104b69190613489565b60405180910390f35b60045481565b600080600654915060075490509091565b600060149054906101000a900463ffffffff1681565b600260009054906101000a900473ffffffffffffffffffffffffffffffffffffffff1681565b600060189054906101000a900463ffffffff1681565b600360009054906101000a900473ffffffffffffffffffffffffffffffffffffffff1673ffffffffffffffffffffffffffffffffffffffff163373ffffffffffffffffffffffffffffffffffffffff16146105b8576040517f08c379a00000000000000000000000000000000000000000000000000000000081526004016105af90613409565b60405180910390fd5b80600360006101000a81548173ffffffffffffffffffffffffffffffffffffffff021916908373ffffffffffffffffffffffffffffffffffffffff16021790555050565b6000601c9054906101000a900463ffffffff1681565b600360009054906101000a900473ffffffffffffffffffffffffffffffffffffffff1681565b600181565b6000806001600d5414610685576040517f08c379a000000000000000000000000000000000000000000000000000000000815260040161067c90613469565b60405180910390fd5b6000600d81905550600560009054906101000a900473ffffffffffffffffffffffffffffffffffffffff1673ffffffffffffffffffffffffffffffffffffffff163373ffffffffffffffffffffffffffffffffffffffff161461071d576040517f08c379a0000000000000000000000000000000000000000000000000000000008152600401610714906132e9565b60405180910390fd5b600c60009054906101000a900460ff1661076c576040517f08c379a000000000000000000000000000000000000000000000000000000000815260040161076390613249565b60405180910390fd5b61082b600a54600160049054906101000a900473ffffffffffffffffffffffffffffffffffffffff1673ffffffffffffffffffffffffffffffffffffffff166370a08231306040518263ffffffff1660e01b81526004016107cd91906130c0565b60206040518083038186803b1580156107e557600080fd5b505afa1580156107f9573d6000803e3d6000fd5b505050506040513d601f19601f8201168201806040525081019061081d91906128d2565b6122e490919063ffffffff16565b91506108ec600b54600260009054906101000a900473ffffffffffffffffffffffffffffffffffffffff1673ffffffffffffffffffffffffffffffffffffffff166370a08231306040518263ffffffff1660e01b815260040161088e91906130c0565b60206040518083038186803b1580156108a657600080fd5b505afa1580156108ba573d6000803e3d6000fd5b505050506040513d601f19601f820116820180604052508101906108de91906128d2565b6122e490919063ffffffff16565b905061091b600160049054906101000a900473ffffffffffffffffffffffffffffffffffffffff168484612334565b610948600260009054906101000a900473ffffffffffffffffffffffffffffffffffffffff168483612334565b60006008819055600681905550600060098190556007819055508273ffffffffffffffffffffffffffffffffffffffff163373ffffffffffffffffffffffffffffffffffffffff167f8166bf25f8a2b7ed3c85049207da4358d16edbed977d23fa2ee6f0dde3ec213284846040516109c19291906134a4565b60405180910390a36001600d81905550915091565b600080600a549150600b5490509091565b60008054906101000a900473ffffffffffffffffffffffffffffffffffffffff1673ffffffffffffffffffffffffffffffffffffffff163373ffffffffffffffffffffffffffffffffffffffff1614610a75576040517f08c379a0000000000000000000000000000000000000000000000000000000008152600401610a6c90613389565b60405180910390fd5b60008363ffffffff16118015610a9957506103e863ffffffff168363ffffffff1611155b610ad8576040517f08c379a0000000000000000000000000000000000000000000000000000000008152600401610acf906131a9565b60405180910390fd5b60008263ffffffff16118015610afb5750600363ffffffff168263ffffffff1611155b610b3a576040517f08c379a0000000000000000000000000000000000000000000000000000000008152600401610b31906132c9565b60405180910390fd5b600a60ff168163ffffffff161115610b87576040517f08c379a0000000000000000000000000000000000000000000000000000000008152600401610b7e906132a9565b60405180910390fd5b86600560006101000a81548173ffffffffffffffffffffffffffffffffffffffff021916908373ffffffffffffffffffffffffffffffffffffffff16021790555085600160046101000a81548173ffffffffffffffffffffffffffffffffffffffff021916908373ffffffffffffffffffffffffffffffffffffffff16021790555084600260006101000a81548173ffffffffffffffffffffffffffffffffffffffff021916908373ffffffffffffffffffffffffffffffffffffffff16021790555083600360006101000a81548173ffffffffffffffffffffffffffffffffffffffff021916908373ffffffffffffffffffffffffffffffffffffffff16021790555082600060186101000a81548163ffffffff021916908363ffffffff160217905550816000601c6101000a81548163ffffffff021916908363ffffffff16021790555080600160006101000a81548163ffffffff021916908363ffffffff1602179055506000600481905550610d2d60016000601c9054906101000a900463ffffffff160163ffffffff16620f424063ffffffff166124bf90919063ffffffff16565b600060146101000a81548163ffffffff021916908363ffffffff16021790555050505050505050565b6000600c60009054906101000a900460ff16610da7576040517f08c379a0000000000000000000000000000000000000000000000000000000008152600401610d9e906133e9565b60405180910390fd5b610daf61251b565b73ffffffffffffffffffffffffffffffffffffffff166376cf0b56600454600754600060149054906101000a900463ffffffff16866040518563ffffffff1660e01b8152600401610e039493929190613504565b60206040518083038186803b158015610e1b57600080fd5b505afa158015610e2f573d6000803e3d6000fd5b505050506040513d601f19601f82011682018060405250810190610e5391906128d2565b9050919050565b7331b2d5f134de0a737360693ed5d5bd42b705bca281565b600080600854915060095490509091565b6000600c60009054906101000a900460ff16610ed4576040517f08c379a0000000000000000000000000000000000000000000000000000000008152600401610ecb90613169565b60405180910390fd5b610f82600260009054906101000a900473ffffffffffffffffffffffffffffffffffffffff1673ffffffffffffffffffffffffffffffffffffffff1663313ce5676040518163ffffffff1660e01b815260040160206040518083038186803b158015610f3f57600080fd5b505afa158015610f53573d6000803e3d6000fd5b505050506040513d601f19601f82011682018060405250810190610f7791906128fb565b60ff16600a0a611b9c565b905090565b600a81565b60008054906101000a900473ffffffffffffffffffffffffffffffffffffffff1681565b600160049054906101000a900473ffffffffffffffffffffffffffffffffffffffff1681565b6000600c60009054906101000a900460ff16611027576040517f08c379a000000000000000000000000000000000000000000000000000000000815260040161101e90613229565b60405180910390fd5b6110d5600160049054906101000a900473ffffffffffffffffffffffffffffffffffffffff1673ffffffffffffffffffffffffffffffffffffffff1663313ce5676040518163ffffffff1660e01b815260040160206040518083038186803b15801561109257600080fd5b505afa1580156110a6573d6000803e3d6000fd5b505050506040513d601f19601f820116820180604052508101906110ca91906128fb565b60ff16600a0a610d56565b905090565b6001600d541461111f576040517f08c379a000000000000000000000000000000000000000000000000000000000815260040161111690613469565b60405180910390fd5b6000600d81905550600c60009054906101000a900460ff16611176576040517f08c379a000000000000000000000000000000000000000000000000000000000815260040161116d906133a9565b60405180910390fd5b600160049054906101000a900473ffffffffffffffffffffffffffffffffffffffff1673ffffffffffffffffffffffffffffffffffffffff168573ffffffffffffffffffffffffffffffffffffffff161480156112205750600260009054906101000a900473ffffffffffffffffffffffffffffffffffffffff1673ffffffffffffffffffffffffffffffffffffffff168473ffffffffffffffffffffffffffffffffffffffff16145b806112d15750600160049054906101000a900473ffffffffffffffffffffffffffffffffffffffff1673ffffffffffffffffffffffffffffffffffffffff168473ffffffffffffffffffffffffffffffffffffffff161480156112d05750600260009054906101000a900473ffffffffffffffffffffffffffffffffffffffff1673ffffffffffffffffffffffffffffffffffffffff168573ffffffffffffffffffffffffffffffffffffffff16145b5b611310576040517f08c379a000000000000000000000000000000000000000000000000000000000815260040161130790613369565b60405180910390fd5b600160049054906101000a900473ffffffffffffffffffffffffffffffffffffffff1673ffffffffffffffffffffffffffffffffffffffff168173ffffffffffffffffffffffffffffffffffffffff16141580156113bc5750600260009054906101000a900473ffffffffffffffffffffffffffffffffffffffff1673ffffffffffffffffffffffffffffffffffffffff168173ffffffffffffffffffffffffffffffffffffffff1614155b6113fb576040517f08c379a00000000000000000000000000000000000000000000000000000000081526004016113f290613269565b60405180910390fd5b60008211801561140b5750600083115b61144a576040517f08c379a000000000000000000000000000000000000000000000000000000000815260040161144190613449565b60405180910390fd5b611455848284612334565b600080600160049054906101000a900473ffffffffffffffffffffffffffffffffffffffff1673ffffffffffffffffffffffffffffffffffffffff168773ffffffffffffffffffffffffffffffffffffffff16141561158d576006549050611586600a54611578600854600160049054906101000a900473ffffffffffffffffffffffffffffffffffffffff1673ffffffffffffffffffffffffffffffffffffffff166370a08231306040518263ffffffff1660e01b815260040161151a91906130c0565b60206040518083038186803b15801561153257600080fd5b505afa158015611546573d6000803e3d6000fd5b505050506040513d601f19601f8201168201806040525081019061156a91906128d2565b6122e490919063ffffffff16565b6122e490919063ffffffff16565b91506116bf565b600260009054906101000a900473ffffffffffffffffffffffffffffffffffffffff1673ffffffffffffffffffffffffffffffffffffffff168773ffffffffffffffffffffffffffffffffffffffff1614156116be5760075490506116bb600b546116ad600954600260009054906101000a900473ffffffffffffffffffffffffffffffffffffffff1673ffffffffffffffffffffffffffffffffffffffff166370a08231306040518263ffffffff1660e01b815260040161164f91906130c0565b60206040518083038186803b15801561166757600080fd5b505afa15801561167b573d6000803e3d6000fd5b505050506040513d601f19601f8201168201806040525081019061169f91906128d2565b6122e490919063ffffffff16565b6122e490919063ffffffff16565b91505b5b60008183116116cf5760006116d3565b8183035b905080861115611718576040517f08c379a000000000000000000000000000000000000000000000000000000000815260040161170f90613329565b60405180910390fd5b60006103e861174c600160009054906101000a900463ffffffff166103e80363ffffffff16896125c190919063ffffffff16565b8161175357fe5b04905060006103e861177a600160ff166103e80361ffff168a6125c190919063ffffffff16565b8161178157fe5b04905060006103e86117be600160ff16600160009054906101000a900463ffffffff16016103e80363ffffffff168b6125c190919063ffffffff16565b816117c557fe5b049050600160049054906101000a900473ffffffffffffffffffffffffffffffffffffffff1673ffffffffffffffffffffffffffffffffffffffff168a73ffffffffffffffffffffffffffffffffffffffff16141561195d578761182882611b9c565b14611868576040517f08c379a000000000000000000000000000000000000000000000000000000000815260040161185f906133c9565b60405180910390fd5b6006548811156118ad576040517f08c379a00000000000000000000000000000000000000000000000000000000081526004016118a490613189565b60405180910390fd5b6118c28860045461263190919063ffffffff16565b6004819055506118dd8160075461263190919063ffffffff16565b6007819055506118f8886006546122e490919063ffffffff16565b600681905550611925836119178b60095461263190919063ffffffff16565b6122e490919063ffffffff16565b600981905550611952826119448b600b5461263190919063ffffffff16565b6122e490919063ffffffff16565b600b81905550611aef565b600260009054906101000a900473ffffffffffffffffffffffffffffffffffffffff1673ffffffffffffffffffffffffffffffffffffffff168a73ffffffffffffffffffffffffffffffffffffffff161415611aee57876119bd82610d56565b146119fd576040517f08c379a00000000000000000000000000000000000000000000000000000000081526004016119f4906131e9565b60405180910390fd5b600754881115611a42576040517f08c379a0000000000000000000000000000000000000000000000000000000008152600401611a3990613209565b60405180910390fd5b611a57816004546122e490919063ffffffff16565b600481905550611a72886007546122e490919063ffffffff16565b600781905550611a8d8160065461263190919063ffffffff16565b600681905550611aba83611aac8b60085461263190919063ffffffff16565b6122e490919063ffffffff16565b600881905550611ae782611ad98b600a5461263190919063ffffffff16565b6122e490919063ffffffff16565b600a819055505b5b8673ffffffffffffffffffffffffffffffffffffffff163373ffffffffffffffffffffffffffffffffffffffff163073ffffffffffffffffffffffffffffffffffffffff167faed33853adff9bbae920f24cf42e39d86728a74691e17fea513aa1cbc109c17a8e8e8e8e604051611b6994939291906130db565b60405180910390a45050505050506001600d819055505050505050565b600160009054906101000a900463ffffffff1681565b6000600c60009054906101000a900460ff16611bed576040517f08c379a0000000000000000000000000000000000000000000000000000000008152600401611be4906133e9565b60405180910390fd5b60006004541415611c8957611c82611c3e600060149054906101000a900463ffffffff1663ffffffff16600060189054906101000a900463ffffffff1663ffffffff166125c190919063ffffffff16565b611c74620f424063ffffffff16611c666103e863ffffffff16876125c190919063ffffffff16565b6125c190919063ffffffff16565b6124bf90919063ffffffff16565b9050611d38565b611c9161251b565b73ffffffffffffffffffffffffffffffffffffffff1663f3250fe2600454600754600060149054906101000a900463ffffffff16866040518563ffffffff1660e01b8152600401611ce59493929190613504565b60206040518083038186803b158015611cfd57600080fd5b505afa158015611d11573d6000803e3d6000fd5b505050506040513d601f19601f82011682018060405250810190611d3591906128d2565b90505b919050565b6000806001600d5414611d85576040517f08c379a0000000000000000000000000000000000000000000000000000000008152600401611d7c90613469565b60405180910390fd5b6000600d819055507331b2d5f134de0a737360693ed5d5bd42b705bca273ffffffffffffffffffffffffffffffffffffffff163373ffffffffffffffffffffffffffffffffffffffff1614611e0f576040517f08c379a0000000000000000000000000000000000000000000000000000000008152600401611e06906132e9565b60405180910390fd5b600c60009054906101000a900460ff16611e5e576040517f08c379a0000000000000000000000000000000000000000000000000000000008152600401611e5590613249565b60405180910390fd5b600a549150600b549050611e95600160049054906101000a900473ffffffffffffffffffffffffffffffffffffffff168484612334565b611ec2600260009054906101000a900473ffffffffffffffffffffffffffffffffffffffff168483612334565b6000600a819055506000600b819055508273ffffffffffffffffffffffffffffffffffffffff163373ffffffffffffffffffffffffffffffffffffffff167ffefe98d2f91f55619f0b737e514b21b1425ad73d0ed4684bf1b51547575fe8848484604051611f319291906134a4565b60405180910390a36001600d81905550915091565b60006001600d5414611f8d576040517f08c379a0000000000000000000000000000000000000000000000000000000008152600401611f8490613469565b60405180910390fd5b6000600d81905550600560009054906101000a900473ffffffffffffffffffffffffffffffffffffffff1673ffffffffffffffffffffffffffffffffffffffff163373ffffffffffffffffffffffffffffffffffffffff1614612025576040517f08c379a000000000000000000000000000000000000000000000000000000000815260040161201c90613289565b60405180910390fd5b60001515600c60009054906101000a900460ff1615151461207b576040517f08c379a000000000000000000000000000000000000000000000000000000000815260040161207290613349565b60405180910390fd5b600160049054906101000a900473ffffffffffffffffffffffffffffffffffffffff1673ffffffffffffffffffffffffffffffffffffffff166370a08231306040518263ffffffff1660e01b81526004016120d691906130c0565b60206040518083038186803b1580156120ee57600080fd5b505afa158015612102573d6000803e3d6000fd5b505050506040513d601f19601f8201168201806040525081019061212691906128d2565b600681905550600260009054906101000a900473ffffffffffffffffffffffffffffffffffffffff1673ffffffffffffffffffffffffffffffffffffffff166370a08231306040518263ffffffff1660e01b815260040161218791906130c0565b60206040518083038186803b15801561219f57600080fd5b505afa1580156121b3573d6000803e3d6000fd5b505050506040513d601f19601f820116820180604052508101906121d791906128d2565b6007819055506001600c60006101000a81548160ff0219169083151502179055506000600754111561226a5761220e600754611b9c565b90508060048190555060008111156122695761224d600160049054906101000a900473ffffffffffffffffffffffffffffffffffffffff168383612334565b612262816006546122e490919063ffffffff16565b6006819055505b5b8173ffffffffffffffffffffffffffffffffffffffff163373ffffffffffffffffffffffffffffffffffffffff167fede963da60ce3b657af455d654d08ff95549f13a4acb219b68756f68755e28e3600654600754856040516122cf939291906134cd565b60405180910390a36001600d81905550919050565b600081831015612329576040517f08c379a000000000000000000000000000000000000000000000000000000000815260040161232090613429565b60405180910390fd5b818303905092915050565b600060608473ffffffffffffffffffffffffffffffffffffffff166040518060400160405280601981526020017f7472616e7366657228616464726573732c75696e74323536290000000000000081525080519060200120858560405160240161239f929190613120565b604051602081830303815290604052907bffffffffffffffffffffffffffffffffffffffffffffffffffffffff19166020820180517bffffffffffffffffffffffffffffffffffffffffffffffffffffffff838183161783525050505060405161240991906130a9565b6000604051808303816000865af19150503d8060008114612446576040519150601f19603f3d011682016040523d82523d6000602084013e61244b565b606091505b509150915081801561247957506000815114806124785750808060200190518101906124779190612880565b5b5b6124b8576040517f08c379a00000000000000000000000000000000000000000000000000000000081526004016124af90613149565b60405180910390fd5b5050505050565b6000808211612503576040517f08c379a00000000000000000000000000000000000000000000000000000000081526004016124fa90613309565b60405180910390fd5b600082848161250e57fe5b0490508091505092915050565b60008060009054906101000a900473ffffffffffffffffffffffffffffffffffffffff1673ffffffffffffffffffffffffffffffffffffffff16634b75f54f6040518163ffffffff1660e01b815260040160206040518083038186803b15801561258457600080fd5b505afa158015612598573d6000803e3d6000fd5b505050506040513d601f19601f820116820180604052508101906125bc9190612742565b905090565b6000808314156125d4576000905061262b565b60008284029050828482816125e557fe5b0414612626576040517f08c379a000000000000000000000000000000000000000000000000000000000815260040161261d906131c9565b60405180910390fd5b809150505b92915050565b60008082840190508381101561267c576040517f08c379a0000000000000000000000000000000000000000000000000000000008152600401612673906131c9565b60405180910390fd5b8091505092915050565b6000813590506126958161363e565b92915050565b6000815190506126aa8161363e565b92915050565b6000815190506126bf81613655565b92915050565b6000813590506126d48161366c565b92915050565b6000815190506126e98161366c565b92915050565b6000813590506126fe81613683565b92915050565b6000815190506127138161369a565b92915050565b60006020828403121561272b57600080fd5b600061273984828501612686565b91505092915050565b60006020828403121561275457600080fd5b60006127628482850161269b565b91505092915050565b600080600080600080600060e0888a03121561278657600080fd5b60006127948a828b01612686565b97505060206127a58a828b01612686565b96505060406127b68a828b01612686565b95505060606127c78a828b01612686565b94505060806127d88a828b016126ef565b93505060a06127e98a828b016126ef565b92505060c06127fa8a828b016126ef565b91505092959891949750929550565b600080600080600060a0868803121561282157600080fd5b600061282f88828901612686565b955050602061284088828901612686565b9450506040612851888289016126c5565b9350506060612862888289016126c5565b925050608061287388828901612686565b9150509295509295909350565b60006020828403121561289257600080fd5b60006128a0848285016126b0565b91505092915050565b6000602082840312156128bb57600080fd5b60006128c9848285016126c5565b91505092915050565b6000602082840312156128e457600080fd5b60006128f2848285016126da565b91505092915050565b60006020828403121561290d57600080fd5b600061291b84828501612704565b91505092915050565b61292d816135a6565b82525050565b600061293e8261357f565b612948818561358a565b935061295881856020860161360b565b80840191505092915050565b6000612971601883613595565b91507f44414f666956313a205452414e534645525f4641494c454400000000000000006000830152602082019050919050565b60006129b1602283613595565b91507f44414f666956313a20554e494e495449414c495a45445f51554f54455f50524960008301527f43450000000000000000000000000000000000000000000000000000000000006020830152604082019050919050565b6000612a17602283613595565b91507f44414f666956313a20494e53554646494349454e545f424153455f524553455260008301527f56450000000000000000000000000000000000000000000000000000000000006020830152604082019050919050565b6000612a7d602083613595565b91507f44414f666956313a20494e56414c49445f534c4f50455f4e554d455241544f526000830152602082019050919050565b6000612abd600c83613595565b91507f4552525f4f564552464c4f5700000000000000000000000000000000000000006000830152602082019050919050565b6000612afd601d83613595565b91507f44414f666956313a20494e56414c49445f51554f54455f4f55545055540000006000830152602082019050919050565b6000612b3d602383613595565b91507f44414f666956313a20494e53554646494349454e545f51554f54455f5245534560008301527f52564500000000000000000000000000000000000000000000000000000000006020830152604082019050919050565b6000612ba3602183613595565b91507f44414f666956313a20554e494e495449414c495a45445f424153455f5052494360008301527f45000000000000000000000000000000000000000000000000000000000000006020830152604082019050919050565b6000612c09601683613595565b91507f44414f666956313a20554e494e495449414c495a4544000000000000000000006000830152602082019050919050565b6000612c49601383613595565b91507f44414f666956313a20494e56414c49445f544f000000000000000000000000006000830152602082019050919050565b6000612c89601a83613595565b91507f44414f666956313a20464f5242494444454e5f4445504f5349540000000000006000830152602082019050919050565b6000612cc9601483613595565b91507f44414f666956313a20494e56414c49445f4645450000000000000000000000006000830152602082019050919050565b6000612d09601283613595565b91507f44414f666956313a20494e56414c49445f4e00000000000000000000000000006000830152602082019050919050565b6000612d49601b83613595565b91507f44414f666956313a20464f5242494444454e5f574954484452415700000000006000830152602082019050919050565b6000612d89601283613595565b91507f4552525f4449564944455f42595f5a45524f00000000000000000000000000006000830152602082019050919050565b6000612dc9601f83613595565b91507f44414f666956313a20494e434f52524543545f494e5055545f414d4f554e54006000830152602082019050919050565b6000612e09601783613595565b91507f44414f666956313a20444f55424c455f4445504f5349540000000000000000006000830152602082019050919050565b6000612e49601983613595565b91507f44414f666956313a20494e434f52524543545f544f4b454e53000000000000006000830152602082019050919050565b6000612e89601283613595565b91507f44414f666956313a20464f5242494444454e00000000000000000000000000006000830152602082019050919050565b6000612ec9601b83613595565b91507f44414f666956313a20554e494e495449414c495a45445f5357415000000000006000830152602082019050919050565b6000612f09601c83613595565b91507f44414f666956313a20494e56414c49445f424153455f4f5554505554000000006000830152602082019050919050565b6000612f49601a83613595565b91507f44414f66695631506169723a20554e494e495449414c495a45440000000000006000830152602082019050919050565b6000612f89601d83613595565b91507f44414f666956313a20464f5242494444454e5f504149525f4f574e45520000006000830152602082019050919050565b6000612fc9600d83613595565b91507f4552525f554e444552464c4f57000000000000000000000000000000000000006000830152602082019050919050565b6000613009601f83613595565b91507f44414f666956313a20494e53554646494349454e545f494f5f414d4f554e54006000830152602082019050919050565b6000613049600f83613595565b91507f44414f666956313a204c4f434b454400000000000000000000000000000000006000830152602082019050919050565b613085816135e4565b82525050565b613094816135ee565b82525050565b6130a3816135fe565b82525050565b60006130b58284612933565b915081905092915050565b60006020820190506130d56000830184612924565b92915050565b60006080820190506130f06000830187612924565b6130fd6020830186612924565b61310a604083018561307c565b613117606083018461307c565b95945050505050565b60006040820190506131356000830185612924565b613142602083018461307c565b9392505050565b6000602082019050818103600083015261316281612964565b9050919050565b60006020820190508181036000830152613182816129a4565b9050919050565b600060208201905081810360008301526131a281612a0a565b9050919050565b600060208201905081810360008301526131c281612a70565b9050919050565b600060208201905081810360008301526131e281612ab0565b9050919050565b6000602082019050818103600083015261320281612af0565b9050919050565b6000602082019050818103600083015261322281612b30565b9050919050565b6000602082019050818103600083015261324281612b96565b9050919050565b6000602082019050818103600083015261326281612bfc565b9050919050565b6000602082019050818103600083015261328281612c3c565b9050919050565b600060208201905081810360008301526132a281612c7c565b9050919050565b600060208201905081810360008301526132c281612cbc565b9050919050565b600060208201905081810360008301526132e281612cfc565b9050919050565b6000602082019050818103600083015261330281612d3c565b9050919050565b6000602082019050818103600083015261332281612d7c565b9050919050565b6000602082019050818103600083015261334281612dbc565b9050919050565b6000602082019050818103600083015261336281612dfc565b9050919050565b6000602082019050818103600083015261338281612e3c565b9050919050565b600060208201905081810360008301526133a281612e7c565b9050919050565b600060208201905081810360008301526133c281612ebc565b9050919050565b600060208201905081810360008301526133e281612efc565b9050919050565b6000602082019050818103600083015261340281612f3c565b9050919050565b6000602082019050818103600083015261342281612f7c565b9050919050565b6000602082019050818103600083015261344281612fbc565b9050919050565b6000602082019050818103600083015261346281612ffc565b9050919050565b600060208201905081810360008301526134828161303c565b9050919050565b600060208201905061349e600083018461307c565b92915050565b60006040820190506134b9600083018561307c565b6134c6602083018461307c565b9392505050565b60006060820190506134e2600083018661307c565b6134ef602083018561307c565b6134fc604083018461307c565b949350505050565b6000608082019050613519600083018761307c565b613526602083018661307c565b613533604083018561308b565b613540606083018461307c565b95945050505050565b600060208201905061355e600083018461308b565b92915050565b6000602082019050613579600083018461309a565b92915050565b600081519050919050565b600081905092915050565b600082825260208201905092915050565b60006135b1826135c4565b9050919050565b60008115159050919050565b600073ffffffffffffffffffffffffffffffffffffffff82169050919050565b6000819050919050565b600063ffffffff82169050919050565b600060ff82169050919050565b60005b8381101561362957808201518184015260208101905061360e565b83811115613638576000848401525b50505050565b613647816135a6565b811461365257600080fd5b50565b61365e816135b8565b811461366957600080fd5b50565b613675816135e4565b811461368057600080fd5b50565b61368c816135ee565b811461369757600080fd5b50565b6136a3816135fe565b81146136ae57600080fd5b5056fea2646970667358221220912b46efcb491fe390ddaf48430f2251cde1c66c0c63729dff56a769db88da0f64736f6c63430007040033",
  "linkReferences": {},
  "deployedLinkReferences": {}
}